:020000040800F2
:10000000000500209D010008751D0008331C000834
:10001000491D0008E50800089D22000800000000B6
:10002000000000000000000000000000791D000832
:100030009909000800000000771D00087B1D0008DA
:10004000B7010008B7010008B7010008B7010008B0
:10005000B7010008B7010008B7010008B7010008A0
:10006000B7010008B7010008B7010008B701000890
:10007000B7010008B7010008B7010008B701000880
:10008000B7010008B7010008B1070008B701000870
:10009000B7010008B7010008B7010008B701000860
:1000A000B7010008B7010008B7010008B701000850
:1000B000B7010008B7010008B7010008B701000840
:1000C000B7010008B7010008B7010008B701000830
:1000D000B701000891220008B7010008B701000825
:1000E000B7010008B7010008B7010008B701000810
:1000F000B7010008B7010008B7010008B701000800
:10010000B7010008B7010008B7010008B7010008EF
:10011000B7010008B7010008B7010008B7010008DF
:10012000E9080008B7010008B7010008B701000896
:10013000B7010008B7010008B7010008B7010008BF
:10014000B7010008B7010008B7010008B7010008AF
:10015000B7010008B7010008B7010008B70100089F
:10016000B7010008B7010008B7010008B70100088F
:10017000B7010008B7010008B7010008000000003F
:10018000B7010008B7010008DFF80CD000F048FA0A
:1001900000480047C12B00080005002006488047A2
:1001A00006480047FEE7FEE7FEE7FEE7FEE7FEE75C
:1001B000FEE7FEE7FEE7FEE7051E000889010008EE
:1001C0002DE9F05F0546002092469B46884606468C
:1001D000814640241BE0284641464746224600F01F
:1001E00057F853465A46C01A914110D31146184643
:1001F000224600F03EF82D1A67EB01084F462246D2
:100200000120002100F035F817EB00094E41201EB7
:10021000A4F10104DFDC484631462A464346BDE8E6
:10022000F09FD2B201E000F8012B491EFBD27047CB
:100230000022F6E710B513460A4604461946FFF7B2
:10024000F0FF204610BD30B50B46014600202022AD
:10025000012409E021FA02F59D4205D303FA02F5D3
:10026000491B04FA02F52844151EA2F10102F1DC33
:1002700030BD202A04DB203A00FA02F1002070474A
:100280009140C2F1200320FA03F3194390407047D4
:10029000202A04DB203A21FA02F00021704721FADB
:1002A00002F3D040C2F12002914008431946704742
:1002B0002DE9FE4F804681EA0300C00F0C460090F6
:1002C00021F0004123F00045B8EB0200A94105D21E
:1002D0004046214690461C460B46024623F000400D
:1002E000104347D0270DC7F30A00C3F30A51029009
:1002F000401A019040286BDAC3F3130040F4801BCE
:100300000098924620B10023D2EB030A63EB0B0B5B
:1003100001985946C0F140025046FFF7AAFF064631
:100320000D4650465946019A00F08CF910EB080032
:100330006141002487EA115284EAE7731A4340D0EE
:10034000009A62B3019A012A4FEA075215DC001B9A
:1003500061EB02014FF0004202EA0752CDE9004290
:10036000001C41F5801132462B4600F08CF903B099
:10037000BDE8F08F40462146F9E7001B61EB020122
:10038000001C41F5801300185B412018A2F50017EE
:1003900047EB030140EAD570B6196D4111E06D08D5
:1003A0004FEA360645EAC0754FEA0752001B61EB7B
:1003B0000201001C41F5801149084FEA3000001984
:1003C000514132462B4603B0BDE8F04F00F04CB926
:1003D0000098012240000023D0EB020263EBE0739F
:1003E000009821464FEAE074B8EB000061EB04018D
:1003F000E9E783F000435BE781F0004158E72DE92E
:10040000FE4F81EA030404F0004421F0004100940F
:100410004FF0000B23F0004350EA01045ED052EA93
:1004200003045BD0C3F30A54C1F30A552C44A4F26D
:10043000F3340194A0FB0254C1F3130141F4801181
:10044000C3F3130343F4801301FB024400FB034E88
:10045000840A970A44EA815447EA8357A4FB076851
:1004600002958D0A05FB07854FEA932C04FB0C547B
:100470002705029D4FEA065847EA1637B5EB0805EF
:100480006EEB070C870E920E47EA811742EA831241
:10049000A7FB0201B6EB0B0164EB00042B0D43EA52
:1004A0000C335E1844EB1C50DA465146E7FB020160
:1004B000C5F313044FEA0B3343EA14534FEA0432F3
:1004C000019C43EA0603A4F10C040294009CCDE9CC
:1004D00000B400F0D8F803B0BDE8F08F002001466A
:1004E000F9E72DE9F04D81EA030404F0004B21F017
:1004F000004514464FF0000A23F0004150EA05027F
:1005000020D054EA01021DD0C5F30A570246C5F3B4
:100510001303C1F31300C1F30A5640F4801543F4EA
:100520008013A7EB0608101BD64608F2FD3873EBC4
:10053000050002D308F1010801E092185B41B8F10F
:10054000000F03DA00200146BDE8F08D00204FF4D3
:100550008011064684460EE0171B73EB050705D392
:10056000121B63EB050306434CEA010C49084FEAF2
:10057000300092185B4150EA0107EDD152EA0300C6
:1005800012D082EA040083EA0501084305D0101B5B
:10059000AB4106D20122002306E000224FF00043C7
:1005A00002E06FF0010253101AEB06004CEB085109
:1005B00010EB0A0041EB0B01BDE8F04D00F054B820
:1005C000C1F30A52C1F3130140F2FF3341F4801129
:1005D0009A4202DA00200146704740F233439A42C1
:1005E000A2F2334202DC5242FFF752BEFFF741BE95
:1005F00030B5041E71F1000404DB4FF000444042AA
:1006000064EB0101141E73F1000405DB1C464FF07E
:100610000043524263EB0403994208BF904230BD4D
:10062000064C074D06E0E06840F0010394E807003F
:1006300098471034AC42F6D3FFF7AAFD3C2C0008D3
:100640005C2C0008202A06DBCB17203A41FA02F086
:1006500043EAE07306E041FA02F3D040C2F120021F
:10066000914008431946704710B5141E73F10004F9
:1006700008DA401C41F1000192185B411A4301D194
:1006800020F0010010BD2DE9F04D92469B4611B1BE
:10069000B1FA81F202E0B0FA80F220329046FFF720
:1006A000E8FD04460F4640EA0A0041EA0B015346C2
:1006B0005A46084313D0114653EA010019D0C8F135
:1006C00040025046FFF7E4FD05460E4650465946A7
:1006D0004246FFF7CEFD084305D0012004E0204646
:1006E0003946BDE8F08D0020054346EAE0762C430C
:1006F00037430A986305E40AA0EB08000022FD0ACC
:1007000044EA47540A3002D500200146E9E70105D2
:1007100010196941DDE9084500196941BDE8F04D4E
:10072000A2E710B50146806B026C12F0500F05D0A5
:10073000026CD20626D500F0E0F910BD016C41F440
:100740000071016401688A6812F0405F17D1027E6F
:10075000AAB9CA6A12F4700F02D08A6852050ED480
:100760004A6822F020024A60016C21F48071016421
:10077000016CC90403D4016C41F00101016400F073
:10078000B5F910BD806BC26CBDE81040084610473B
:1007900010B5806B40210164416C41F0040141645B
:1007A00000F0ABF910BD10B5806B00F0A5F910BDDD
:1007B000014800F0A3B9000014000020464910B51C
:1007C0004A6822F440324A604A6843681A434A60E1
:1007D00001684A6822F480724A6001684A680369C5
:1007E00042EA03224A6001684A6822F040724A6085
:1007F00001684A6883681A434A6001688A6822F47B
:1008000000628A6001688A68C3681A438A60816AE4
:100810006FF07062D14201688A6822F070628A606B
:1008200001688A680CD0836A1A438A6001688A6802
:1008300022F040528A6001688A68C36A1A4301E064
:1008400022F040528A6001688A6822F002028A60BF
:1008500001688A68037E42EA43028A6090F82010A9
:10086000002901684A680FD042F400624A600168BA
:100870004A6822F460424A6001684A68174C436A39
:1008800004EB43331A4301E022F400624A6001683A
:10089000CA6A22F47002CA620168CA6A838B104C69
:1008A00004EB03531A43CA6201688A6822F4007297
:1008B0008A6001688A6890F8303042EA43228A6090
:1008C00001688A6822F480628A6001688A684069E7
:1008D00042EA8020886010BD0023014000E0FFFF55
:1008E0000000F0FFFEE70000014800F0CFBA000072
:1008F0005C00002001681823CAB2103AB2FBF3F280
:10090000054B6FF30901032A9B5CC36500D9091DE0
:1009100081650846704700001C2C000810B5014690
:1009200000208B698A6A4FF0C07453B1B3F5005F41
:1009300015D072B1012A0CD0022A0AD0032A09D19B
:1009400004E01AB1012A06D0022A03D1C96AC901FA
:1009500000D5012010BDC96AA142FAD010BD002AFD
:10096000F7D0012AF2D0022AF3D0032AF3D010BD27
:1009700030B50468256825F4802525600468636027
:100980008368402B036803D099600068C26030BD63
:100990009A600068C16030BD7047704770470000C2
:1009A00078B50024009490F83C20012A19D0012247
:1009B00080F83C200A6807230568092A13D9EE68E5
:1009C0000A3A02EB420293409E43EE600B788A683B
:1009D0000A3B03EB43039A400368DD682A43DA606D
:1009E00010E0022078BD2E6902EB420293409E4344
:1009F0002E610B788A6803EB43039A4003681D69F4
:100A00002A431A614A681F23072A13D205686E6BAE
:100A1000521E02EB820293409E436E630B790A885A
:100A20005B1E92B203EB83039A4003685D6B2A431B
:100A30005A6327E005680D2A12D22E6BD21F02EBF3
:100A4000820293409E432E630B790A88DB1F92B289
:100A500003EB83039A4003681D6B2A431A6311E07A
:100A6000EE6A0D3A02EB820293409E43EE620B79EE
:100A70000A880D3B92B203EB83039A400368DD6A58
:100A80002A43DA62164B0568144A9D4206D10D6866
:100A9000122D03D1556845F48005556005689D42C7
:100AA00018D10B68102B01D0112B13D1536843F4CC
:100AB00000035360096810290CD10A490A4A0968E1
:100AC000B1FBF2F101EB8101490000E0491E009108
:100AD0000029FBD180F83C40002078BD0023014074
:100AE000002001401000002040420F000149012079
:100AF00008607047000000207047704770B50446DA
:100B0000006801684268C1F34001C2F3401251B36A
:100B10004AB3216CC90603D4216C41F400712164ED
:100B2000816811F0405F17D1217EA9B9C16A11F423
:100B3000700F02D0816849050ED4416821F0200170
:100B40004160206C20F480702064206CC00403D4C9
:100B5000206C40F0010020642046FFF7C7FF2168A9
:100B60006FF012000860206801684268C1F38001DC
:100B7000C2F3C01289B382B3216CC90603D4216CBD
:100B800041F400512164816811F4401F1ED1816B32
:100B900011F4401F02D08168490517D44168490506
:100BA00014D4816811F0405F10D1217E71B9416881
:100BB00021F080014160206C20F480502064206C82
:100BC000C00503D4206C40F0010020642046FFF7EC
:100BD000E5FE21686FF00C0008602068016842683B
:100BE00011F0010FC2F380120ED06AB10068C00785
:100BF0000AD0206C40F480302064204600F046F893
:100C000021686FF001000860206801684268C1F344
:100C10004011C2F3806200290DD0002A0BD0616C14
:100C200041F0020161646FF0200505602046FFF786
:100C300064FF2068056070BD70B504004FF00005CA
:100C400003D0206C002610B107E0012070BD2046C3
:100C500000F01EF8666484F83C60206CC00610D476
:100C6000206C20F4885040F0020020642046FFF7FA
:100C7000A5FD6664206C20F0020040F001002064B5
:100C800000E0012584F83C60284670BD70470000F4
:100C900070B586B0064614216846FFF7C9FA2149A7
:100CA000306888423BD120480025016841F48071BA
:100CB0000160006800F4807005901B4814380168DA
:100CC00041F0010101600068694600F001000590F3
:100CD000012000900320CDE90105144800F04CFAF2
:100CE000144C1348C4E900050015A560C4E903507D
:100CF000400060618000C4E9060525622046656207
:100D000000F094F908B1FFF748FEB46300221146E1
:100D10001220A66300F076FB122000F065FB06B0FF
:100D200070BD000000200140443802400000024035
:100D3000106402405C000020F8B50E460021044615
:100D4000009190F83C00012807D0012084F83C0075
:100D500020688368DB0702D011E00220F8BD8368B9
:100D600043F0010383603748374B0068B0FBF3F072
:100D700000EB400000E0401E00900028FBD12068FE
:100D80008368DB075CD0236C40F20165AB4343F41E
:100D9000807323644068400505D5206C20F4005022
:100DA00040F480502064206CC00404D5606C20F0B6
:100DB0000600606400E0616484F83C10A16B244884
:100DC000224DC863A16B23480864A16B2248C86404
:100DD00021686FF0220008602068416841F080615E
:100DE00041602068816841F4807181602168134608
:100DF00032464C31A06B00F083F968681749C00691
:100E0000206806D088421BD1816811F0405F13D062
:100E100016E08842F8D0124A904203D1D1F8042358
:100E2000D206F1D00F4A90420AD1D1F8041301F052
:100E30001F011029E8D303E0816841F080418160FF
:100E40000020F8BD1000002040420F0000230140A8
:100E500023070008A70700089107000800200140A9
:100E6000002101400022014090F83510022903D0F2
:100E70008021416501207047052180F83510006808
:100E8000016821F001010160002070472DE9F8435D
:100E900004464FF00009CDF8009063484FF4165116
:100EA000A56D0068B0FBF1F72E6894F85C1008207F
:100EB00000FA01F131420FD021680A6852070BD5C0
:100EC0000A6822F004020A6094F85C108840A86066
:100ED000606D40F00100606594F85C104FF001080F
:100EE00008FA01F0304208D021684969090604D5A2
:100EF000A860606D40F00200606594F85C1004200A
:100F00008840304208D021680968890704D5A86064
:100F1000606D40F00400606594F85C10102088401B
:100F2000304218D021680968090714D5A8602068E4
:100F30000168490304D50068000308D5A16C07E0E7
:100F40000168C90503D4016821F008010160216C22
:100F500009B12046884794F85C1020208840304230
:100F600031D021680968C9062DD5A86094F83500EC
:100F700005282068016806D0490347D500680003AA
:100F80001DD4616C1CE021F01601016020684169EC
:100F900021F080014161206C08B9A06C20B120686B
:100FA000016821F00801016094F85C103F2088403E
:100FB000A86084F8349084F83580216D1FE0E16BDF
:100FC00009B120468847606D00282BD0606DC007AE
:100FD00014D0052084F835002068016821F0010153
:100FE00001600098401C0090B84203D82068006857
:100FF000C007F6D184F8349084F83580E16C00297C
:1010000010D001B02046BDE8F04308470168C9058B
:10101000D5D4016821F01001016084F8349084F87F
:101020003580CCE7BDE8F883100000202DE9F041C1
:10103000044600F079F906465CB1002584F8345086
:10104000022084F835002068016821F00101016068
:101050000DE00120BDE8F08100F066F9801B052855
:1010600005D920206065032084F83500F2E7206868
:101070000068C007F0D12268116820480140D4E917
:1010800001031843D4E90336334318436369184313
:10109000A3691843E3691843236A18430843616A44
:1010A000042903D1D4E90B131943084310602068C5
:1010B0004069666A20F0070130460E430127042884
:1010C0000CD1A06A0643E06A40B12046FFF726FC37
:1010D00020B14020606584F83570BAE72068466129
:1010E0002046FFF707FC94F85C203F219140816087
:1010F000656584F835700020ACE700003F8010F093
:101100002DE9F0410446866D90F834000025012851
:101110000DD0012084F8340094F835700020012FA0
:1011200007D084F8340002252846BDE8F08102206B
:10113000FBE7022784F8357060652046FFF718FC4E
:1011400094F85C103F208840B0602068016841F04E
:10115000160101602068416941F080014161206C05
:1011600020B12068016841F0080101602068016831
:1011700041F001010160D7E72DE9F84FDFF87CB1BC
:1011800000224FF001084FF0030A4FF00F090BF156
:10119000040E00BF0B6808FA02F42340A3426ED18C
:1011A0004D68022D01D0122D0ED1D50800EB850C13
:1011B000DCF820505607F70E09FA07F6B5430E691A
:1011C000BE402E43CCF82060066855000F790AFA1D
:1011D00005FC07F0030726EA0C06AF40374307601B
:1011E0004E68012E05D0022E03D0112E01D0122EF2
:1011F0000ED18668CF6826EA0C06AF403743876079
:101200004668A6430C79C4F3001494403443446008
:10121000C6688C6826EA0C06AC403443C4604C684F
:10122000E40065D5364C256845F480452560246882
:1012300022F0030504F480440094324C2E19D6F8B1
:10124000084895072F0F09FA07F5AC432E4DA84221
:1012500001D1002524E02D4DA84201D101251FE038
:101260002B4DA84201D102251AE02A4DA84201D1F6
:10127000032515E0284DA84202D1042510E037E0EF
:10128000264DA84201D105250AE0254DA84201D1ED
:10129000062505E0234DA84201D1072500E00825D9
:1012A000BD402543C6F80858DBF800405D464E684F
:1012B0009C43F60300D51C432C60DEF800407546C5
:1012C0004E689C43B60300D51C432C600B4D08357B
:1012D0002C684E689C43F60200D51C432C60074DD9
:1012E0000C352C684E689C43B60200D51C432C601C
:1012F000521C102AFFF44EAFBDE8F88F003C0140AD
:101300004438024000300140000002400004024026
:1013100000080240000C024000100240001402408D
:1013200000180240001C024001488068704700001D
:1013300004000020024881680278114481607047EF
:10134000040000200B4810B5016841F400710160F1
:10135000016841F480610160016841F480710160BD
:10136000032000F06FF8002000F006F800F024F8E9
:10137000002010BD003C024070B50D4D04464FF4F6
:101380007A712878B1FBF0F00A490968B1FBF0F0F6
:1013900000F0E2FA48B9102C07D200222146501E74
:1013A00000F030F800206C6070BD012070BD0000BE
:1013B00004000020100000200A4808B5016841F42C
:1013C00080410160006800F4804000900548001FE3
:1013D000016841F080510160006800F08050009089
:1013E00008BD000044380240002809DB00F01F025D
:1013F000012191404009800000F1E020C0F8001177
:1014000070470000F0B40E4B1B680C46C3F3022378
:10141000C3F10705042D00D90425191D072901D2A0
:10142000002300E0DB1E012606FA05F1491E2140DB
:1014300099409E40761E16403143F0BC00F042BFFA
:101440000CED00E0064900F0070208684FF6FF03C4
:10145000184040EA0220034A104308607047000029
:101460000CED00E00000FA052DE9F0470E460500FE
:1014700065D0DFF81481D8F80000F7B200F00F0053
:10148000B04207D288F80070D8F8000000F00F00D2
:10149000B04254D128683D4C810712D5400703D58E
:1014A000206840F4E05020602878000703D52068C9
:1014B00040F4604020602068A96820F0F0000843F4
:1014C00020602878C0072DD0304968680839012885
:1014D00012D0022813D0032811D0096889070029E7
:1014E0002DDA216821F0030101432160FFF71CFF81
:1014F000814641F2883A0EE009688903EFE70968FE
:101500008901ECE7FFF710FFA0EB0901514502D973
:101510000320BDE8F0872068696800F00C00B0EB9C
:10152000810FEFD1D8F80010404601F00F01B14211
:1015300007D90770006800F00F00B04201D0012009
:10154000E7E72878400705D52068E96820F4E050EF
:10155000084320602878000706D52068296920F410
:10156000604040EAC100206000F036F82168084A77
:10157000C1F30311515CC840064908600020FFF721
:10158000FBFE0020C5E70000003C02400838024096
:10159000242C000810000020044805490068096850
:1015A000044AC1F38221515CC840704710000020FA
:1015B00008380240342C00080448054900680968CE
:1015C000044AC1F34231515CC8407047100000200A
:1015D00008380240342C0008154810B5006810F097
:1015E0000C02144813D01449042A0FD0082A0ED133
:1015F0000F4C241F2268236802F03F025B0207D5CC
:101600002068C0F38810A0FB010106E0084610BD69
:101610002168C1F38811A1FB00010023FEF7D0FD72
:101620002168C1F30141491C4900B0FBF1F010BD34
:10163000083802400024F40040787D012DE9F84F7D
:10164000050076D02878DFF8F8B2BE4CC00749D044
:10165000DBF800105846C1F38101012908D0006869
:10166000C0F3810002280AD1201D0068400206D57F
:101670002068800336D568680028E2D032E06868C8
:10168000B0F5803F10D0B0F5A02F206810D020F426
:1016900080302060206820F4802020606868A0B13D
:1016A000FFF742FE06460CE0206840F48030F4E785
:1016B00040F480202060F7E7FFF736FE801B6428A7
:1016C00073D820688003F7D50CE0FFF72DFE06469F
:1016D00005E000BFFFF728FE801B6428F0D82068D3
:1016E0008003F7D42878DFF8608280074FF0000984
:1016F0003ED5DBF80010584611F00C0F09D00068F9
:10170000C0F3810002280BD18D48001F0068400201
:1017100006D42068800715D5E868012809D111E0B2
:10172000E868B8B10120C8F80000FFF7FDFD0646E3
:1017300005E002E1FFF7F8FD801B0228C0D8206811
:101740008007F7D52068296920F0F80040EAC10039
:1017500020600DE0C8F80090FFF7E6FD064604E0C3
:10176000FFF7E2FD801B02281FD820688007F7D40E
:101770002878000722D5724E744869696C3671B1B9
:1017800001210160FFF7D0FD074604E0FFF7CCFD23
:10179000C01B022809D830688007F7D50EE0C0F8D2
:1017A0000090FFF7C1FD074605E083E0FFF7BCFDB1
:1017B000C01B02287ED830688007F7D428784007FD
:1017C00068D5DFF87CA100270AF1380ADAF80000B2
:1017D000C0000BD4DAF8001041F08051CAF80010B4
:1017E000DAF80000012700F080500090584E306871
:1017F000C00510D4306840F480703060FFF794FD6D
:10180000009005E0FFF790FD0099401A022851D89A
:101810003068C005F6D54A4EA868683601280FD052
:101820000528306810D020F001003060306820F0CA
:1018300004003060A868B8B1FFF776FD00900FE0B3
:10184000306840F00100F4E740F004003060F7E752
:10185000FFF76AFD0099411A41F28830814264D84D
:1018600030688007F4D50EE0FFF75EFD009007E0DA
:10187000FFF75AFD0099411A41F28830814254D84D
:1018800030688007F4D42FB1DAF8001021F08051CD
:10189000CAF80010A869C0B3DBF80010C1F38101D9
:1018A00002294AD00228484607D0C8F86000FFF74E
:1018B0003BFD00E039E005463AE04746C8F86000E5
:1018C000FFF732FD064604E0FFF72EFD801B0228DD
:1018D0002BD820688001F7D4D5E907010843A96A0D
:1018E0001C4A490802EB01416A6A41EA8211084335
:1018F00095F82C1040EA01611148001F0160012099
:101900003866FFF711FD054605E014E0FFF70CFD12
:10191000401B022809D820688001F7D50BE000BFE2
:10192000FFF702FD401B022802D90320BDE8F88F13
:1019300020688001F4D40020F8E70120F6E70000D9
:10194000083802400038024000004742800E4742FB
:10195000007000400000FFFF10B5401EB0F1807F16
:1019600001D3012010BD4FF0E02460610F2160170A
:1019700000F0A8FC0020A06107202061002010BD1D
:101980007047000070B5026804461068D16853695A
:1019900010F00F0F50D003F0010501F4907635439D
:1019A0005DD0C20705D0CA0503D5E26B42F0010243
:1019B000E263420705D5DA0703D0E26B42F0020288
:1019C000E263820705D5DA0703D0E26B42F0040236
:1019D000E263020705D5DA0703D0E26B42F00802A2
:1019E000E263E26B002A33D0800604D5880602D574
:1019F000204600F047FA20684069E16BC0F3801090
:101A0000090700D428B3204600F02EFA2068416967
:101A100049061AD5416921F040014161606BA0B1CE
:101A20001B490165606BFFF71FFA002810D0606B3F
:101A3000016DBDE870400847830610D58B060ED5B2
:101A40002046BDE8704000F01DBA2046FFF798FF21
:101A500070BD2046FFF794FF0020E06370BD0306D1
:101A600006D50B0604D52046BDE8704000F0ACBB9F
:101A70004006F3D54806F1D5D168204621F0400153
:101A8000D160202184F8391000F0D2F870BD000038
:101A9000591E000870B5040004D094F839000025E0
:101AA00010B106E0012070BD84F83850204600F0E7
:101AB00023F8242084F839002068C16821F40051FB
:101AC000C160204600F02AFA2068016921F49041A3
:101AD00001612068416921F02A0141612068C168E3
:101AE00041F40051C160E563202084F8390084F896
:101AF0003A00002070BD000010B586B004461421E5
:101B00006846FEF795FB18492068884229D1174896
:101B1000016841F010010160006800F010000590BC
:101B200012481438016841F00101016000686946FB
:101B300000F0010005904FF4C06000900220019079
:101B40000120029003200390072004900848FFF72B
:101B500013FB002211462520FFF754FC2520FFF738
:101B600043FC06B010BD00000010014044380240A4
:101B70000000024070472DE9F843044690F8390010
:101B80001F4616460D46202850D1A5B19EB194F8A7
:101B9000380001284AD0012084F838004FF00008AE
:101BA000C4F83C80212084F83900FFF7BDFBA684EF
:101BB0008146E68426E00120BDE8F883E08C401EE3
:101BC000E084A0684B46B0F5805F4FF000024FF014
:101BD00080012046009703D000F027FBE8B90DE014
:101BE00000F023FBC8B928882168C0F308004860CA
:101BF000206908B16D1C05E0AD1C03E0216815F8F3
:101C0000010B4860E08C0028D8D14B4600224021CF
:101C10002046009700F009FB08B10320CCE7202004
:101C200084F8390084F838800020C5E70220C3E733
:101C30007047FEE77FB50024194800940194029490
:101C400016490394C0E900140125056184600576F6
:101C500080F820401349C0E90A140226C661C46016
:101C600080F830504461FEF7E7FF08B1FEF795FEBB
:101C7000CDE9004569460A480294FEF791FE08B195
:101C8000FEF78BFE1020CDE9000669460448FEF7FA
:101C900087FE002801D0FEF780FE7FBD00200140B6
:101CA000140000200100000F094808B5016841F444
:101CB000800101600068002200F48000009011465D
:101CC0003820FFF79FFBBDE808403820FFF78CBBAA
:101CD000303802400D4808B5016841F00401016048
:101CE000016801F004010091016841F08001016088
:101CF000016801F080010091016841F0010101607B
:101D0000006800F00100009008BD0000303802407B
:101D10000C4810B50A4901604FF4E13141600021DF
:101D200081600C22C160C0E904128161C161FFF7CA
:101D3000B1FE002803D0BDE81040FEF72EBE10BD56
:101D400000100140BC000020FEE700000FB400B509
:101D500099B01BAA68461A9900F0A2FA82B24FF411
:101D60007A7369460248FFF706FF19B05DF814FB65
:101D7000BC000020704770477047FFF7DBBA0000D7
:101D800030B593B030216846FEF752FA14210CA802
:101D9000FEF74EFA19480025016841F080510160B4
:101DA000006800F0805011901548016841F48041AE
:101DB00001600068022400F480401190012003902B
:101DC0001020009406940490CDE907504FF4A870B9
:101DD000CDE9090404200B906846FFF72FFC0CA9FD
:101DE0000F2081E831004FF4A0500F901090052192
:101DF0000CA8FFF739FB13B030BD0000403802409B
:101E0000007000401048016841F4700101600F4803
:101E1000016841F0010101600C4A002108321160A3
:101E200002680B4B1A400260031D0A4A1A600268DE
:101E300022F48022026005480C30016002495806F5
:101E4000803908607047000088ED00E000380240EB
:101E5000FFFFF6FE1030002410B5806B0021C18515
:101E6000C184FFF78DFD10BD0168CA6822F490722D
:101E7000CA6001684A6922F001024A61202180F8A3
:101E80003A10704710B590F83A10222901D002207C
:101E900010BD8168B1F5805F11D00169002901682A
:101EA0001FD0496801F07F03816A4A1C82620B706F
:101EB000C18D491E0904090CC18518D02BE00269A7
:101EC000816A002A0268526805D0D2B20A80816A0B
:101ED000491C8162ECE7C2F308020A80816A891C0E
:101EE000F7E74A68816A4B1C83620A70E0E7016881
:101EF000CA6822F02002CA600168CA6822F48072AF
:101F0000CA6001684A6922F001024A61202180F812
:101F10003A10FFF72FFE002010BD00002DE9F04120
:101F2000044600680169E26821F4405111430161EF
:101F30002169A068E2690843616911432268084386
:101F4000D16849F20C6399430143D160206841692B
:101F5000A26921F4407111434161E2696425B2F53F
:101F6000004F9748974922684FF032083FD08A4285
:101F700001D082427CD1FFF71FFB00EBC00101EBD7
:101F8000001061688900B0FBF1F6FFF715FB00EB6C
:101F9000C00101EB001061688900B0FBF1F0B0FBFB
:101FA000F5F06FF01801484306EB800108EB0110D3
:101FB000B0FBF5F000F0F006FFF7FEFA00EBC00111
:101FC00001EB001061688900B0FBF1F0B0FBF5F0A7
:101FD00006EB0016FFF7F0FA00EBC00101EB001072
:101FE00061688900B0FBF1F7FFF7E6FAD2E08A42B8
:101FF00001D082423DD1FFF7DFFA00EBC00101EBD7
:10200000001061684900B0FBF1F0B0FBF5F006018B
:10201000FFF7D2FA00EBC00101EB00106168490044
:10202000B0FBF1F7FFF7C8FA00EBC00101EB0010BD
:1020300061684900B0FBF1F0B0FBF5F06FF01801FA
:10204000484307EB800108EBC100B0FBF5F000F05E
:10205000F80006EB4006FFF7AFFA00EBC00101EB1A
:10206000001061684900B0FBF1F7FFF7A5FA3CE00A
:1020700055E0FFF791FA00EBC00101EB0010616839
:102080004900B0FBF1F0B0FBF5F00601FFF784FA70
:1020900000EBC00101EB001061684900B0FBF1F7F3
:1020A000FFF77AFA00EBC00101EB0010616849000C
:1020B000B0FBF1F0B0FBF5F06FF01801484307EB0F
:1020C000800108EBC100B0FBF5F000F0F80006EB72
:1020D0004006FFF761FA00EBC00101EB00106168F8
:1020E0004900B0FBF1F7FFF757FA00EBC00101EB35
:1020F000001061684900B0FBF1F0B0FBF5F06FF043
:102100001801484307EB800108EBC100B0FBF5F074
:1021100000F00700216830448860BDE8F081FFF7D7
:102120003BFA00EBC00101EB001061688900B0FBD5
:10213000F1F6FFF731FA00EBC00101EB0010616826
:102140008900B0FBF1F0B0FBF5F06FF018014843E7
:1021500006EB800108EB0110B0FBF5F000F0F00693
:10216000FFF71AFA00EBC00101EB0010616889006B
:10217000B0FBF1F0B0FBF5F006EB0016FFF70CFA40
:1021800000EBC00101EB001061688900B0FBF1F7C2
:10219000FFF702FA00EBC00101EB00106168890053
:1021A000B0FBF1F0B0FBF5F06FF01801484307EB1E
:1021B000800108EB0110B0FBF5F000F00F00A9E77B
:1021C000001401400010014090F83910212901D07D
:1021D000022070478168B1F5805F016A0BD04A1C0C
:1021E0000262026809785160C18C491E0904090C19
:1021F000C1840ED017E009880268C1F3080151605C
:1022000001690029016A02D0491C0162ECE7891CBE
:10221000FBE70168CA6822F08002CA600068C168F2
:1022200041F04001C160002070472DE9F04198461F
:1022300017460E460446069D1DE0681C1BD02DB1B6
:10224000FFF772F8A0EB0800A84214D92068C16813
:1022500021F4D071C1602068416921F00101416120
:10226000202084F8390084F83A00002084F83800EF
:102270000320BDE8F0812068006836EA000004D041
:102280000020B842D9D00020F3E70120F9E7000090
:102290000148FFF777BB0000BC000020FEE700000C
:1022A00037B514460846064B6A46214600F0ECF85E
:1022B00004466946002000F07EFC20463EBD00003A
:1022C000B72B00080907090E002804DB00F1E02005
:1022D00080F80014704700F00F0000F1E02080F853
:1022E000141D704702E008C8121F08C1002AFAD165
:1022F00070477047002001E001C1121F002AFBD186
:10230000704700002DE9FF5F82B00021DDE9043055
:10231000020DDDF840B0034318D044F61050A2F28D
:10232000FF3242431514119801281FD0A5EB0B0072
:10233000401C5FEA000A4FF000064E4FDFF838916C
:10234000B046504615D5CAF1000413E01198012497
:102350004AA3012801D16FEA0B010298119AC0E942
:102360000031C0E9024206B0BDE8F09FCBF10000A9
:10237000DFE704460021404A491842EB0450CDE90A
:10238000001012E0E00707D032463B46404649467F
:10239000FEF735F88046894632463B4610461946D8
:1023A000FEF72DF806460F466410002CEAD1DDE951
:1023B0000401DDE90023BAF1000F06DAFEF71FF889
:1023C00042464B46FEF71BF805E0FEF78AF8424608
:1023D0004B46FEF786F804460E460022284BFEF7D1
:1023E00007F903D84FF0FF30014607E00022254BE4
:1023F00020463146FDF75CFFFEF7E2F8102409E0C5
:10240000002C0ADB0A220023FDF7DAFE039B3032A0
:102410001A55641E50EA0102F2D1641C039AC4F1F9
:1024200011031444119A012A03D0012208430DD14B
:102430000AE0084304D000204FF0110B119072E71E
:10244000A3EB0B056D1E0DE05B4504DD4FF00002B4
:1024500005F1010504E003DA4FF00002A5F10105E2
:10246000002AECD002981199C0E90231C0E9004578
:1024700079E70000000014400000F03F3000000049
:102480000000F0430000E03F2DE9FF4F95B09B4670
:102490008946064600250FE2252877D100242746E5
:1024A000F84A0121059400E0044316F8013F203B5F
:1024B00001FA03F01042F7D130782A2811D06FF0DA
:1024C0002F033078A0F13002092A16D8059A44F07B
:1024D000020402EB820203EB42021044761C0590D8
:1024E000EFE759F8042B0592002A03DA504244F42E
:1024F0000054059044F00204761C30782E2816D142
:1025000016F8010F44F004042A280DD06FF02F02B2
:102510003078A0F13003092B09D807EB870302EBD1
:102520004303C718761CF3E759F8047B761C307810
:102530006C280FD006DC4C2817D068280DD06A28EC
:1025400014D104E0742810D07A280FD10DE044F49F
:1025500000140AE044F4801401E044F4401472785A
:10256000824202D104F58014761C761C30786628ED
:102570000BD013DC582877D009DC002875D045280B
:10258000F6D04628F4D047281AD19DE118E06328F8
:1025900035D0642879D0652812D195E1702873D0A0
:1025A00008DC6728F1D069286FD06E280DD06F281D
:1025B00006D1B5E073282CD0752875D0782874D052
:1025C0005A46179990476D1C75E1C4F302500228D2
:1025D00009D003280DD0D9F8001004280DD00D60C3
:1025E00009F1040967E1D9F80010EA17C1E90052BE
:1025F000F6E7D9F800100D80F2E70D70F0E719F852
:10260000041B8DF8001000208DF80100EA4601201F
:1026100003E059F804AB4FF0FF3061074FF00001C1
:1026200002D40DE008F101018846B9420FDA804575
:10263000F8DB1AF808100029F4D108E008F10101CC
:1026400088468142FADB1AF808100029F6D105986D
:102650005B46A0EB080721463846179A00F094FA2B
:10266000284400EB080507E04DE029E10DE01AF8E9
:10267000010B5A4617999047B8F10108F7D25B460B
:1026800021463846179A13E142E00A220092C4F329
:1026900002524FF0000A022A08D059F804CB032A4C
:1026A0004FEAEC710AD00DE029E02AE009F10701B8
:1026B00021F00702F2E802C1914609E00FFA8CFC12
:1026C0004FEAEC71042A03D14FFA8CFC4FEAEC710B
:1026D000002907DA0A460021DCF1000C61EB020157
:1026E0002D2202E0220504D52B228DF804200122A0
:1026F00003E0E20701D02022F7E7904659E00A21E3
:1027000002E010220DE010214FF0000A00910BE0D2
:1027100010224FF0000A44F004040827009203E05E
:1027200008224FF0000A0092C4F30252022A05D098
:1027300059F804CB0021032A08D009E009F1070168
:1027400021F00702F2E802C1914605E01FFA8CFC75
:10275000042A01D10CF0FF0C4FF00008220728D505
:10276000702806D0009B83F0100353EA0A0305D0BB
:102770000EE040228DF80420012208E05CEA01020C
:1027800006D030228DF804208DF8050002229046F4
:10279000009B83F0080353EA0A030AD15CEA0102B2
:1027A00001D1620705D530228DF804204FF00108D1
:1027B0007F1E582804D034A003900EA802900DE08C
:1027C00036A0F9E753466046009AFDF7F9FC8446C7
:1027D0000398825C0298401E029002705CEA01003D
:1027E000F0D1029806A9081A00F1200A600702D564
:1027F00024F4803400E00127574502DDA7EB0A00EE
:1028000000E0002000EB0A01009005984144401AC6
:102810000590E00306D45B462146179A059800F020
:10282000B3F90544002706E001A85A46C05D179990
:1028300090476D1C7F1C4745F6DBE0030CD55B46DB
:102840002146179A059800F09FF9054404E03020CE
:102850005A46179990476D1C0099481E0090002910
:10286000F5DC08E0029802995A460078491C02916A
:10287000179990476D1CBAF10001AAF1010AF1DC29
:1028800065E1000009280100303132333435363734
:1028900038396162636465660000000030313233AC
:1028A000343536373839414243444546000000004C
:1028B00000F058F90544761C307800287FF4ECAD20
:1028C00019B02846BDE8F08F620700D4062709F149
:1028D000070222F0070CFCE80223E14603F000485F
:1028E0005FEA080C02D00FF2702C0DE05FEA045C86
:1028F00002D50FF2682C07E05FEAC47C02D00FF229
:10290000602C01E0AFF2700C4FF0FF3823F0004371
:10291000CDF850C065280CD006DC452809D04628E3
:102920001DD047283DD13DE0662818D067287ED1CC
:1029300038E00021112F01DB112000E0781CCDE9E7
:10294000000106A90EA8FFF7DDFCDDE90F010E9AD4
:1029500003910021009207F1010A04914DE04FF02C
:1029600000400097CDE9011006A90EA8FFF7CAFCA8
:10297000DDE90F0203920E9B11990022DDF80CA0F5
:102980000093049211B9791C00EB010AB7EB0A001D
:1029900004D4C0F1FF3007F1010A0490AAEB07004C
:1029A000019044E0012F00DA01270021112F01DD01
:1029B000112000E03846CDE9000106A90EA8FFF776
:1029C000A1FCDDE90F010E9A039100210491009210
:1029D000BA4621070CD40399514500DA8A46BAF168
:1029E000010F05DD009AAAF10101515C302908D0E0
:1029F000B84202DA10F1040F06DA0121CDE9011024
:102A000015E0AAF10101E9E7002805DC0499014479
:102A10000491AAEB000102E0411C514500DD8A4609
:102A20000499401A401C01904FF00040029020078A
:102A300004D40198504501DBCDF8048000208DF8C6
:102A40004F0002980DF14F07B0F1004F25D02B2019
:102A50000E9002984FF0020800280CDA40420290D3
:102A60002D200E9007E00A210298FDF7ECFB303193
:102A7000029007F8011DB8F10001A8F10108F2DC8D
:102A800002980028EFD1791E0E980870307800F077
:102A9000200040F0450007F8020D12A8C01B00F10D
:102AA00007081498007800B1012000EB0A01019892
:102AB00001EBE07105984144401A401E0590E00387
:102AC00006D45B462146179A059800F05DF8054448
:102AD0001498007818B15A46179990476D1CE00376
:102AE00024D55B462146179A059800F04DF8054419
:102AF0001CE00498002807DBDDE90301884203DDC0
:102B00000098405C179901E0179930205A46904789
:102B1000049805F10105401C04900198401E0190A5
:102B200004D12E205A46179990476D1CBAF1000126
:102B3000AAF1010ADDDC05E017F8010B5A461799E6
:102B400090476D1CB8F10001A8F10108F4DC5B4668
:102B50002146179A0598ABE62D0000002B000000D7
:102B6000200000002DE9F041044600251E461746CE
:102B7000880404D405E039462020B0476D1C641E4B
:102B8000F9D52846BDE8F0812DE9F041044600253D
:102B90001E469046C80301D5302700E02027880450
:102BA00004D505E041463846B0476D1C641EF9D592
:102BB0002846BDE8F0810A68531C0B60107070470E
:102BC00090B0FEF7BFFBFFF7DBF8FFF783F8FFF7E6
:102BD0006BF8FFF72FF8FFF79BF81E2269460A48AB
:102BE000FEF7AAF8094D00276E4628680128FCD197
:102BF00000242F6036F8141005A0FFF7A7F8641C16
:102C00001E2CF7DBF1E7000014000020000000207C
:102C100041444331203D2025640D0A000006101672
:102C2000000610160000000000000000010203046E
:102C30000607080900000000010203045C2C0008DC
:102C40000000002014000000E4220008702C00089E
:102C500014000020EC040000F42200080000000032
:102C60000100000010000000000000000024F4003B
:040000050800018965
:00000001FF
